{
  "fileName": "Box.sol",
  "contractName": "Box",
  "source": "pragma solidity ^0.5.0;\n\n// Import Ownable from the OpenZeppelin Contracts library\nimport '@openzeppelin/contracts-ethereum-package/contracts/ownership/Ownable.sol';\n\n\n// Make Box inherit from the Ownable contract\ncontract Box is Ownable {\n  uint256 private value;\n\n  event ValueChanged(uint256 newValue);\n\n  function initialize() public initializer {\n    initialize(msg.sender);\n  }\n\n  // The onlyOwner modifier restricts who can call the store function\n  function store(uint256 newValue) public onlyOwner {\n    value = newValue;\n    emit ValueChanged(newValue);\n  }\n\n  function increment() public onlyOwner {\n    store(value + 1);\n  }\n\n  function retrieve() public view returns (uint256) {\n    return value;\n  }\n}\n",
  "sourcePath": "contracts/Box.sol",
  "abi": [
    {
      "anonymous": false,
      "inputs": [
        {
          "indexed": true,
          "internalType": "address",
          "name": "previousOwner",
          "type": "address"
        },
        {
          "indexed": true,
          "internalType": "address",
          "name": "newOwner",
          "type": "address"
        }
      ],
      "name": "OwnershipTransferred",
      "type": "event"
    },
    {
      "anonymous": false,
      "inputs": [
        {
          "indexed": false,
          "internalType": "uint256",
          "name": "newValue",
          "type": "uint256"
        }
      ],
      "name": "ValueChanged",
      "type": "event"
    },
    {
      "constant": false,
      "inputs": [],
      "name": "increment",
      "outputs": [],
      "payable": false,
      "stateMutability": "nonpayable",
      "type": "function"
    },
    {
      "constant": false,
      "inputs": [],
      "name": "initialize",
      "outputs": [],
      "payable": false,
      "stateMutability": "nonpayable",
      "type": "function"
    },
    {
      "constant": false,
      "inputs": [
        {
          "internalType": "address",
          "name": "sender",
          "type": "address"
        }
      ],
      "name": "initialize",
      "outputs": [],
      "payable": false,
      "stateMutability": "nonpayable",
      "type": "function"
    },
    {
      "constant": true,
      "inputs": [],
      "name": "isOwner",
      "outputs": [
        {
          "internalType": "bool",
          "name": "",
          "type": "bool"
        }
      ],
      "payable": false,
      "stateMutability": "view",
      "type": "function"
    },
    {
      "constant": true,
      "inputs": [],
      "name": "owner",
      "outputs": [
        {
          "internalType": "address",
          "name": "",
          "type": "address"
        }
      ],
      "payable": false,
      "stateMutability": "view",
      "type": "function"
    },
    {
      "constant": false,
      "inputs": [],
      "name": "renounceOwnership",
      "outputs": [],
      "payable": false,
      "stateMutability": "nonpayable",
      "type": "function"
    },
    {
      "constant": true,
      "inputs": [],
      "name": "retrieve",
      "outputs": [
        {
          "internalType": "uint256",
          "name": "",
          "type": "uint256"
        }
      ],
      "payable": false,
      "stateMutability": "view",
      "type": "function"
    },
    {
      "constant": false,
      "inputs": [
        {
          "internalType": "uint256",
          "name": "newValue",
          "type": "uint256"
        }
      ],
      "name": "store",
      "outputs": [],
      "payable": false,
      "stateMutability": "nonpayable",
      "type": "function"
    },
    {
      "constant": false,
      "inputs": [
        {
          "internalType": "address",
          "name": "newOwner",
          "type": "address"
        }
      ],
      "name": "transferOwnership",
      "outputs": [],
      "payable": false,
      "stateMutability": "nonpayable",
      "type": "function"
    }
  ],
  "bytecode": "0x608060405261065b806100136000396000f3fe608060405234801561001057600080fd5b50600436106100935760003560e01c80638da5cb5b116100665780638da5cb5b146100e15780638f32d59b14610105578063c4d66de814610121578063d09de08a14610147578063f2fde38b1461014f57610093565b80632e64cec1146100985780636057361d146100b2578063715018a6146100d15780638129fc1c146100d9575b600080fd5b6100a0610175565b60408051918252519081900360200190f35b6100cf600480360360208110156100c857600080fd5b503561017b565b005b6100cf6101fd565b6100cf61028e565b6100e9610339565b604080516001600160a01b039092168252519081900360200190f35b61010d610348565b604080519115158252519081900360200190f35b6100cf6004803603602081101561013757600080fd5b50356001600160a01b031661036e565b6100cf610460565b6100cf6004803603602081101561016557600080fd5b50356001600160a01b03166104b7565b60665490565b610183610348565b6101c2576040805162461bcd60e51b815260206004820181905260248201526000805160206105d9833981519152604482015290519081900360640190fd5b60668190556040805182815290517f93fe6d397c74fdf1402a8b72e47b68512f0510d7b98a4bc4cbdf6ac7108b3c599181900360200190a150565b610205610348565b610244576040805162461bcd60e51b815260206004820181905260248201526000805160206105d9833981519152604482015290519081900360640190fd5b6033546040516000916001600160a01b0316907f8be0079c531659141344cd1fd0a4f28419497f9722a3daafe3b4186f6b6457e0908390a3603380546001600160a01b0319169055565b600054610100900460ff16806102a757506102a7610507565b806102b5575060005460ff16155b6102f05760405162461bcd60e51b815260040180806020018281038252602e8152602001806105f9602e913960400191505060405180910390fd5b600054610100900460ff1615801561031b576000805460ff1961ff0019909116610100171660011790555b6103243361036e565b8015610336576000805461ff00191690555b50565b6033546001600160a01b031690565b6033546000906001600160a01b031661035f61050d565b6001600160a01b031614905090565b600054610100900460ff16806103875750610387610507565b80610395575060005460ff16155b6103d05760405162461bcd60e51b815260040180806020018281038252602e8152602001806105f9602e913960400191505060405180910390fd5b600054610100900460ff161580156103fb576000805460ff1961ff0019909116610100171660011790555b603380546001600160a01b0319166001600160a01b0384811691909117918290556040519116906000907f8be0079c531659141344cd1fd0a4f28419497f9722a3daafe3b4186f6b6457e0908290a3801561045c576000805461ff00191690555b5050565b610468610348565b6104a7576040805162461bcd60e51b815260206004820181905260248201526000805160206105d9833981519152604482015290519081900360640190fd5b6104b560665460010161017b565b565b6104bf610348565b6104fe576040805162461bcd60e51b815260206004820181905260248201526000805160206105d9833981519152604482015290519081900360640190fd5b61033681610511565b303b1590565b3390565b6001600160a01b0381166105565760405162461bcd60e51b81526004018080602001828103825260268152602001806105b36026913960400191505060405180910390fd5b6033546040516001600160a01b038084169216907f8be0079c531659141344cd1fd0a4f28419497f9722a3daafe3b4186f6b6457e090600090a3603380546001600160a01b0319166001600160a01b039290921691909117905556fe4f776e61626c653a206e6577206f776e657220697320746865207a65726f20616464726573734f776e61626c653a2063616c6c6572206973206e6f7420746865206f776e6572436f6e747261637420696e7374616e63652068617320616c7265616479206265656e20696e697469616c697a6564a265627a7a723158203947e8d1e5a843c288dca607650551ce85a3ee35b96605eda087e27cd633bbc764736f6c63430005100032",
  "compiler": {
    "name": "solc",
    "version": "0.5.16+commit.9c3226ce.Emscripten.clang",
    "optimizer": {
      "enabled": true,
      "runs": 200
    },
    "evmVersion": "petersburg"
  }
}