{
  "fileName": "Box.sol",
  "contractName": "Box",
  "source": "pragma solidity ^0.5.0;\n\n// Import Ownable from the OpenZeppelin Contracts library\nimport '@openzeppelin/contracts-ethereum-package/contracts/ownership/Ownable.sol';\n\n\n// Make Box inherit from the Ownable contract\ncontract Box is Ownable {\n  uint256 private value;\n\n  event ValueChanged(uint256 newValue);\n\n  // The onlyOwner modifier restricts who can call the store function\n  function store(uint256 newValue) public onlyOwner {\n    value = newValue;\n    emit ValueChanged(newValue);\n  }\n\n  function increment() public onlyOwner {\n    store(value + 1);\n  }\n\n  function retrieve() public view returns (uint256) {\n    return value;\n  }\n}\n",
  "sourcePath": "contracts/Box.sol",
  "abi": [
    {
      "anonymous": false,
      "inputs": [
        {
          "indexed": true,
          "internalType": "address",
          "name": "previousOwner",
          "type": "address"
        },
        {
          "indexed": true,
          "internalType": "address",
          "name": "newOwner",
          "type": "address"
        }
      ],
      "name": "OwnershipTransferred",
      "type": "event"
    },
    {
      "anonymous": false,
      "inputs": [
        {
          "indexed": false,
          "internalType": "uint256",
          "name": "newValue",
          "type": "uint256"
        }
      ],
      "name": "ValueChanged",
      "type": "event"
    },
    {
      "constant": false,
      "inputs": [],
      "name": "increment",
      "outputs": [],
      "payable": false,
      "stateMutability": "nonpayable",
      "type": "function"
    },
    {
      "constant": false,
      "inputs": [
        {
          "internalType": "address",
          "name": "sender",
          "type": "address"
        }
      ],
      "name": "initialize",
      "outputs": [],
      "payable": false,
      "stateMutability": "nonpayable",
      "type": "function"
    },
    {
      "constant": true,
      "inputs": [],
      "name": "isOwner",
      "outputs": [
        {
          "internalType": "bool",
          "name": "",
          "type": "bool"
        }
      ],
      "payable": false,
      "stateMutability": "view",
      "type": "function"
    },
    {
      "constant": true,
      "inputs": [],
      "name": "owner",
      "outputs": [
        {
          "internalType": "address",
          "name": "",
          "type": "address"
        }
      ],
      "payable": false,
      "stateMutability": "view",
      "type": "function"
    },
    {
      "constant": false,
      "inputs": [],
      "name": "renounceOwnership",
      "outputs": [],
      "payable": false,
      "stateMutability": "nonpayable",
      "type": "function"
    },
    {
      "constant": true,
      "inputs": [],
      "name": "retrieve",
      "outputs": [
        {
          "internalType": "uint256",
          "name": "",
          "type": "uint256"
        }
      ],
      "payable": false,
      "stateMutability": "view",
      "type": "function"
    },
    {
      "constant": false,
      "inputs": [
        {
          "internalType": "uint256",
          "name": "newValue",
          "type": "uint256"
        }
      ],
      "name": "store",
      "outputs": [],
      "payable": false,
      "stateMutability": "nonpayable",
      "type": "function"
    },
    {
      "constant": false,
      "inputs": [
        {
          "internalType": "address",
          "name": "newOwner",
          "type": "address"
        }
      ],
      "name": "transferOwnership",
      "outputs": [],
      "payable": false,
      "stateMutability": "nonpayable",
      "type": "function"
    }
  ],
  "bytecode": "0x60806040526105a0806100136000396000f3fe608060405234801561001057600080fd5b50600436106100885760003560e01c80638f32d59b1161005b5780638f32d59b146100f2578063c4d66de81461010e578063d09de08a14610134578063f2fde38b1461013c57610088565b80632e64cec11461008d5780636057361d146100a7578063715018a6146100c65780638da5cb5b146100ce575b600080fd5b610095610162565b60408051918252519081900360200190f35b6100c4600480360360208110156100bd57600080fd5b5035610168565b005b6100c46101ea565b6100d661027b565b604080516001600160a01b039092168252519081900360200190f35b6100fa61028a565b604080519115158252519081900360200190f35b6100c46004803603602081101561012457600080fd5b50356001600160a01b03166102b0565b6100c46103a2565b6100c46004803603602081101561015257600080fd5b50356001600160a01b03166103f9565b60665490565b61017061028a565b6101af576040805162461bcd60e51b8152602060048201819052602482015260008051602061051e833981519152604482015290519081900360640190fd5b60668190556040805182815290517f93fe6d397c74fdf1402a8b72e47b68512f0510d7b98a4bc4cbdf6ac7108b3c599181900360200190a150565b6101f261028a565b610231576040805162461bcd60e51b8152602060048201819052602482015260008051602061051e833981519152604482015290519081900360640190fd5b6033546040516000916001600160a01b0316907f8be0079c531659141344cd1fd0a4f28419497f9722a3daafe3b4186f6b6457e0908390a3603380546001600160a01b0319169055565b6033546001600160a01b031690565b6033546000906001600160a01b03166102a161044c565b6001600160a01b031614905090565b600054610100900460ff16806102c957506102c9610450565b806102d7575060005460ff16155b6103125760405162461bcd60e51b815260040180806020018281038252602e81526020018061053e602e913960400191505060405180910390fd5b600054610100900460ff1615801561033d576000805460ff1961ff0019909116610100171660011790555b603380546001600160a01b0319166001600160a01b0384811691909117918290556040519116906000907f8be0079c531659141344cd1fd0a4f28419497f9722a3daafe3b4186f6b6457e0908290a3801561039e576000805461ff00191690555b5050565b6103aa61028a565b6103e9576040805162461bcd60e51b8152602060048201819052602482015260008051602061051e833981519152604482015290519081900360640190fd5b6103f7606654600101610168565b565b61040161028a565b610440576040805162461bcd60e51b8152602060048201819052602482015260008051602061051e833981519152604482015290519081900360640190fd5b61044981610456565b50565b3390565b303b1590565b6001600160a01b03811661049b5760405162461bcd60e51b81526004018080602001828103825260268152602001806104f86026913960400191505060405180910390fd5b6033546040516001600160a01b038084169216907f8be0079c531659141344cd1fd0a4f28419497f9722a3daafe3b4186f6b6457e090600090a3603380546001600160a01b0319166001600160a01b039290921691909117905556fe4f776e61626c653a206e6577206f776e657220697320746865207a65726f20616464726573734f776e61626c653a2063616c6c6572206973206e6f7420746865206f776e6572436f6e747261637420696e7374616e63652068617320616c7265616479206265656e20696e697469616c697a6564a265627a7a723158209cd1efdc5f2462ef0e0cc54a14e34e3b3aed7134c861833a54af3ccea7f05a3f64736f6c634300050c0032",
  "compiler": {
    "name": "solc",
    "version": "0.5.12+commit.7709ece9.Emscripten.clang",
    "optimizer": {
      "enabled": true,
      "runs": 200
    },
    "evmVersion": "petersburg"
  }
}