{
  "fileName": "Box.sol",
  "contractName": "Box",
  "source": "pragma solidity ^0.5.0;\n\n// Import Ownable from the OpenZeppelin Contracts library\nimport '@openzeppelin/contracts-ethereum-package/contracts/ownership/Ownable.sol';\n\n\n// Make Box inherit from the Ownable contract\ncontract Box is Ownable {\n  uint256 private value;\n\n  event ValueChanged(uint256 newValue);\n\n  // The onlyOwner modifier restricts who can call the store function\n  function store(uint256 newValue) public onlyOwner {\n    value = newValue;\n    emit ValueChanged(newValue);\n  }\n\n  function retrieve() public view returns (uint256) {\n    return value;\n  }\n}\n",
  "sourcePath": "contracts/Box.sol",
  "abi": [
    {
      "anonymous": false,
      "inputs": [
        {
          "indexed": true,
          "internalType": "address",
          "name": "previousOwner",
          "type": "address"
        },
        {
          "indexed": true,
          "internalType": "address",
          "name": "newOwner",
          "type": "address"
        }
      ],
      "name": "OwnershipTransferred",
      "type": "event"
    },
    {
      "anonymous": false,
      "inputs": [
        {
          "indexed": false,
          "internalType": "uint256",
          "name": "newValue",
          "type": "uint256"
        }
      ],
      "name": "ValueChanged",
      "type": "event"
    },
    {
      "constant": false,
      "inputs": [
        {
          "internalType": "address",
          "name": "sender",
          "type": "address"
        }
      ],
      "name": "initialize",
      "outputs": [],
      "payable": false,
      "stateMutability": "nonpayable",
      "type": "function"
    },
    {
      "constant": true,
      "inputs": [],
      "name": "isOwner",
      "outputs": [
        {
          "internalType": "bool",
          "name": "",
          "type": "bool"
        }
      ],
      "payable": false,
      "stateMutability": "view",
      "type": "function"
    },
    {
      "constant": true,
      "inputs": [],
      "name": "owner",
      "outputs": [
        {
          "internalType": "address",
          "name": "",
          "type": "address"
        }
      ],
      "payable": false,
      "stateMutability": "view",
      "type": "function"
    },
    {
      "constant": false,
      "inputs": [],
      "name": "renounceOwnership",
      "outputs": [],
      "payable": false,
      "stateMutability": "nonpayable",
      "type": "function"
    },
    {
      "constant": true,
      "inputs": [],
      "name": "retrieve",
      "outputs": [
        {
          "internalType": "uint256",
          "name": "",
          "type": "uint256"
        }
      ],
      "payable": false,
      "stateMutability": "view",
      "type": "function"
    },
    {
      "constant": false,
      "inputs": [
        {
          "internalType": "uint256",
          "name": "newValue",
          "type": "uint256"
        }
      ],
      "name": "store",
      "outputs": [],
      "payable": false,
      "stateMutability": "nonpayable",
      "type": "function"
    },
    {
      "constant": false,
      "inputs": [
        {
          "internalType": "address",
          "name": "newOwner",
          "type": "address"
        }
      ],
      "name": "transferOwnership",
      "outputs": [],
      "payable": false,
      "stateMutability": "nonpayable",
      "type": "function"
    }
  ],
  "bytecode": "0x608060405261054c806100136000396000f3fe608060405234801561001057600080fd5b506004361061007d5760003560e01c80638da5cb5b1161005b5780638da5cb5b146100c35780638f32d59b146100e7578063c4d66de814610103578063f2fde38b146101295761007d565b80632e64cec1146100825780636057361d1461009c578063715018a6146100bb575b600080fd5b61008a61014f565b60408051918252519081900360200190f35b6100b9600480360360208110156100b257600080fd5b5035610155565b005b6100b96101e9565b6100cb61028c565b604080516001600160a01b039092168252519081900360200190f35b6100ef61029b565b604080519115158252519081900360200190f35b6100b96004803603602081101561011957600080fd5b50356001600160a01b03166102c1565b6100b96004803603602081101561013f57600080fd5b50356001600160a01b03166103b3565b60665490565b61015d61029b565b6101ae576040805162461bcd60e51b815260206004820181905260248201527f4f776e61626c653a2063616c6c6572206973206e6f7420746865206f776e6572604482015290519081900360640190fd5b60668190556040805182815290517f93fe6d397c74fdf1402a8b72e47b68512f0510d7b98a4bc4cbdf6ac7108b3c599181900360200190a150565b6101f161029b565b610242576040805162461bcd60e51b815260206004820181905260248201527f4f776e61626c653a2063616c6c6572206973206e6f7420746865206f776e6572604482015290519081900360640190fd5b6033546040516000916001600160a01b0316907f8be0079c531659141344cd1fd0a4f28419497f9722a3daafe3b4186f6b6457e0908390a3603380546001600160a01b0319169055565b6033546001600160a01b031690565b6033546000906001600160a01b03166102b2610418565b6001600160a01b031614905090565b600054610100900460ff16806102da57506102da61041c565b806102e8575060005460ff16155b6103235760405162461bcd60e51b815260040180806020018281038252602e8152602001806104ea602e913960400191505060405180910390fd5b600054610100900460ff1615801561034e576000805460ff1961ff0019909116610100171660011790555b603380546001600160a01b0319166001600160a01b0384811691909117918290556040519116906000907f8be0079c531659141344cd1fd0a4f28419497f9722a3daafe3b4186f6b6457e0908290a380156103af576000805461ff00191690555b5050565b6103bb61029b565b61040c576040805162461bcd60e51b815260206004820181905260248201527f4f776e61626c653a2063616c6c6572206973206e6f7420746865206f776e6572604482015290519081900360640190fd5b61041581610422565b50565b3390565b303b1590565b6001600160a01b0381166104675760405162461bcd60e51b81526004018080602001828103825260268152602001806104c46026913960400191505060405180910390fd5b6033546040516001600160a01b038084169216907f8be0079c531659141344cd1fd0a4f28419497f9722a3daafe3b4186f6b6457e090600090a3603380546001600160a01b0319166001600160a01b039290921691909117905556fe4f776e61626c653a206e6577206f776e657220697320746865207a65726f2061646472657373436f6e747261637420696e7374616e63652068617320616c7265616479206265656e20696e697469616c697a6564a265627a7a723158200219511fc5891aa11417520dad539b29af870032d6639344ef7b9e7b4969317564736f6c634300050c0032",
  "compiler": {
    "name": "solc",
    "version": "0.5.12+commit.7709ece9.Emscripten.clang",
    "optimizer": {
      "enabled": true,
      "runs": 200
    },
    "evmVersion": "petersburg"
  }
}