{
  "fileName": "Box.sol",
  "contractName": "Box",
  "source": "pragma solidity ^0.5.0;\npragma experimental ABIEncoderV2;\n\n// Import Ownable from the OpenZeppelin Contracts library\nimport '@openzeppelin/contracts-ethereum-package/contracts/ownership/Ownable.sol';\n\n\n// Make Box inherit from the Ownable contract\ncontract Box is Ownable {\n  struct BoxInfo {\n    string name;\n  }\n\n  uint256 private _value;\n  BoxInfo private _info;\n\n  event ValueChanged(uint256 newValue);\n\n  function initializeBox(BoxInfo memory info, address owner) public initializer {\n    _info = info;\n\n    Ownable.initialize(owner);\n  }\n\n  function name() public view returns (string memory) {\n    return _info.name;\n  }\n\n  // The onlyOwner modifier restricts who can call the store function\n  function store(uint256 newValue) public onlyOwner {\n    _value = newValue;\n    emit ValueChanged(newValue);\n  }\n\n  function increment() public onlyOwner {\n    store(_value + 1);\n  }\n\n  function retrieve() public view returns (uint256) {\n    return _value;\n  }\n}\n",
  "sourcePath": "contracts/Box.sol",
  "abi": [
    {
      "anonymous": false,
      "inputs": [
        {
          "indexed": true,
          "internalType": "address",
          "name": "previousOwner",
          "type": "address"
        },
        {
          "indexed": true,
          "internalType": "address",
          "name": "newOwner",
          "type": "address"
        }
      ],
      "name": "OwnershipTransferred",
      "type": "event"
    },
    {
      "anonymous": false,
      "inputs": [
        {
          "indexed": false,
          "internalType": "uint256",
          "name": "newValue",
          "type": "uint256"
        }
      ],
      "name": "ValueChanged",
      "type": "event"
    },
    {
      "constant": false,
      "inputs": [],
      "name": "increment",
      "outputs": [],
      "payable": false,
      "stateMutability": "nonpayable",
      "type": "function"
    },
    {
      "constant": false,
      "inputs": [
        {
          "internalType": "address",
          "name": "sender",
          "type": "address"
        }
      ],
      "name": "initialize",
      "outputs": [],
      "payable": false,
      "stateMutability": "nonpayable",
      "type": "function"
    },
    {
      "constant": false,
      "inputs": [
        {
          "components": [
            {
              "internalType": "string",
              "name": "name",
              "type": "string"
            }
          ],
          "internalType": "struct Box.BoxInfo",
          "name": "info",
          "type": "tuple"
        },
        {
          "internalType": "address",
          "name": "owner",
          "type": "address"
        }
      ],
      "name": "initializeBox",
      "outputs": [],
      "payable": false,
      "stateMutability": "nonpayable",
      "type": "function"
    },
    {
      "constant": true,
      "inputs": [],
      "name": "isOwner",
      "outputs": [
        {
          "internalType": "bool",
          "name": "",
          "type": "bool"
        }
      ],
      "payable": false,
      "stateMutability": "view",
      "type": "function"
    },
    {
      "constant": true,
      "inputs": [],
      "name": "name",
      "outputs": [
        {
          "internalType": "string",
          "name": "",
          "type": "string"
        }
      ],
      "payable": false,
      "stateMutability": "view",
      "type": "function"
    },
    {
      "constant": true,
      "inputs": [],
      "name": "owner",
      "outputs": [
        {
          "internalType": "address",
          "name": "",
          "type": "address"
        }
      ],
      "payable": false,
      "stateMutability": "view",
      "type": "function"
    },
    {
      "constant": false,
      "inputs": [],
      "name": "renounceOwnership",
      "outputs": [],
      "payable": false,
      "stateMutability": "nonpayable",
      "type": "function"
    },
    {
      "constant": true,
      "inputs": [],
      "name": "retrieve",
      "outputs": [
        {
          "internalType": "uint256",
          "name": "",
          "type": "uint256"
        }
      ],
      "payable": false,
      "stateMutability": "view",
      "type": "function"
    },
    {
      "constant": false,
      "inputs": [
        {
          "internalType": "uint256",
          "name": "newValue",
          "type": "uint256"
        }
      ],
      "name": "store",
      "outputs": [],
      "payable": false,
      "stateMutability": "nonpayable",
      "type": "function"
    },
    {
      "constant": false,
      "inputs": [
        {
          "internalType": "address",
          "name": "newOwner",
          "type": "address"
        }
      ],
      "name": "transferOwnership",
      "outputs": [],
      "payable": false,
      "stateMutability": "nonpayable",
      "type": "function"
    }
  ],
  "bytecode": "0x6080604052610a1b806100136000396000f3fe608060405234801561001057600080fd5b506004361061009e5760003560e01c80638da5cb5b116100665780638da5cb5b146101065780638f32d59b1461011b578063c4d66de814610130578063d09de08a14610143578063f2fde38b1461014b5761009e565b806306fdde03146100a35780632e64cec1146100c15780634000d4c2146100d65780636057361d146100eb578063715018a6146100fe575b600080fd5b6100ab61015e565b6040516100b891906108a7565b60405180910390f35b6100c96101f5565b6040516100b891906108ef565b6100e96100e43660046106f2565b6101fb565b005b6100e96100f9366004610743565b6102b0565b6100e9610314565b61010e610382565b6040516100b8919061088b565b610123610391565b6040516100b89190610899565b6100e961013e3660046106cc565b6103b7565b6100e961048a565b6100e96101593660046106cc565b6104be565b60678054604080516020601f60026000196101006001881615020190951694909404938401819004810282018101909252828152606093909290918301828280156101ea5780601f106101bf576101008083540402835291602001916101ea565b820191906000526020600020905b8154815290600101906020018083116101cd57829003601f168201915b505050505090505b90565b60665490565b600054610100900460ff168061021457506102146104ee565b80610222575060005460ff16155b6102475760405162461bcd60e51b815260040161023e906108df565b60405180910390fd5b600054610100900460ff16158015610272576000805460ff1961ff0019909116610100171660011790555b82518051849160679161028c91839160209091019061057a565b50905050610299826103b7565b80156102ab576000805461ff00191690555b505050565b6102b8610391565b6102d45760405162461bcd60e51b815260040161023e906108cf565b60668190556040517f93fe6d397c74fdf1402a8b72e47b68512f0510d7b98a4bc4cbdf6ac7108b3c59906103099083906108ef565b60405180910390a150565b61031c610391565b6103385760405162461bcd60e51b815260040161023e906108cf565b6033546040516000916001600160a01b0316907f8be0079c531659141344cd1fd0a4f28419497f9722a3daafe3b4186f6b6457e0908390a3603380546001600160a01b0319169055565b6033546001600160a01b031690565b6033546000906001600160a01b03166103a86104f4565b6001600160a01b031614905090565b600054610100900460ff16806103d057506103d06104ee565b806103de575060005460ff16155b6103fa5760405162461bcd60e51b815260040161023e906108df565b600054610100900460ff16158015610425576000805460ff1961ff0019909116610100171660011790555b603380546001600160a01b0319166001600160a01b0384811691909117918290556040519116906000907f8be0079c531659141344cd1fd0a4f28419497f9722a3daafe3b4186f6b6457e0908290a38015610486576000805461ff00191690555b5050565b610492610391565b6104ae5760405162461bcd60e51b815260040161023e906108cf565b6104bc6066546001016102b0565b565b6104c6610391565b6104e25760405162461bcd60e51b815260040161023e906108cf565b6104eb816104f8565b50565b303b1590565b3390565b6001600160a01b03811661051e5760405162461bcd60e51b815260040161023e906108bf565b6033546040516001600160a01b038084169216907f8be0079c531659141344cd1fd0a4f28419497f9722a3daafe3b4186f6b6457e090600090a3603380546001600160a01b0319166001600160a01b0392909216919091179055565b828054600181600116156101000203166002900490600052602060002090601f016020900481019282601f106105bb57805160ff19168380011785556105e8565b828001600101855582156105e8579182015b828111156105e85782518255916020019190600101906105cd565b506105f49291506105f8565b5090565b6101f291905b808211156105f457600081556001016105fe565b803561061d816109bb565b92915050565b600082601f83011261063457600080fd5b813561064761064282610924565b6108fd565b9150808252602083016020830185838301111561066357600080fd5b61066e838284610975565b50505092915050565b60006020828403121561068957600080fd5b61069360206108fd565b9050813567ffffffffffffffff8111156106ac57600080fd5b6106b884828501610623565b82525092915050565b803561061d816109cf565b6000602082840312156106de57600080fd5b60006106ea8484610612565b949350505050565b6000806040838503121561070557600080fd5b823567ffffffffffffffff81111561071c57600080fd5b61072885828601610677565b925050602061073985828601610612565b9150509250929050565b60006020828403121561075557600080fd5b60006106ea84846106c1565b61076a81610959565b82525050565b61076a81610964565b60006107848261094c565b61078e8185610950565b935061079e818560208601610981565b6107a7816109b1565b9093019392505050565b60006107be602683610950565b7f4f776e61626c653a206e6577206f776e657220697320746865207a65726f206181526564647265737360d01b602082015260400192915050565b6000610806602083610950565b7f4f776e61626c653a2063616c6c6572206973206e6f7420746865206f776e6572815260200192915050565b600061083f602e83610950565b7f436f6e747261637420696e7374616e63652068617320616c726561647920626581526d195b881a5b9a5d1a585b1a5e995960921b602082015260400192915050565b61076a816101f2565b6020810161061d8284610761565b6020810161061d8284610770565b602080825281016108b88184610779565b9392505050565b6020808252810161061d816107b1565b6020808252810161061d816107f9565b6020808252810161061d81610832565b6020810161061d8284610882565b60405181810167ffffffffffffffff8111828210171561091c57600080fd5b604052919050565b600067ffffffffffffffff82111561093b57600080fd5b506020601f91909101601f19160190565b5190565b90815260200190565b600061061d82610969565b151590565b6001600160a01b031690565b82818337506000910152565b60005b8381101561099c578181015183820152602001610984565b838111156109ab576000848401525b50505050565b601f01601f191690565b6109c481610959565b81146104eb57600080fd5b6109c4816101f256fea365627a7a7231582014bcc24facf5a66a27fe38e2095415fffdb0bad1797ceee9466241126f5897546c6578706572696d656e74616cf564736f6c634300050c0040",
  "compiler": {
    "name": "solc",
    "version": "0.5.12+commit.7709ece9.Emscripten.clang",
    "optimizer": {
      "enabled": true,
      "runs": 200
    },
    "evmVersion": "petersburg"
  }
}