{
  "fileName": "Box.sol",
  "contractName": "Box",
  "source": "pragma solidity ^0.5.0;\npragma experimental ABIEncoderV2;\n\n// Import Ownable from the OpenZeppelin Contracts library\nimport '@openzeppelin/contracts-ethereum-package/contracts/ownership/Ownable.sol';\n\n\n// Make Box inherit from the Ownable contract\ncontract Box is Ownable {\n  struct BoxInfo {\n    string name;\n  }\n\n  uint256 private _value;\n  BoxInfo private _info;\n\n  event ValueChanged(uint256 newValue);\n\n  function initializeBox(BoxInfo memory info) public initializer {\n    _info = info;\n\n    Ownable.initialize(_msgSender());\n  }\n\n  function name() public view returns (string memory) {\n    return _info.name;\n  }\n\n  // The onlyOwner modifier restricts who can call the store function\n  function store(uint256 newValue) public onlyOwner {\n    _value = newValue;\n    emit ValueChanged(newValue);\n  }\n\n  function increment() public onlyOwner {\n    store(_value + 1);\n  }\n\n  function retrieve() public view returns (uint256) {\n    return _value;\n  }\n}\n",
  "sourcePath": "contracts/Box.sol",
  "abi": [
    {
      "anonymous": false,
      "inputs": [
        {
          "indexed": true,
          "internalType": "address",
          "name": "previousOwner",
          "type": "address"
        },
        {
          "indexed": true,
          "internalType": "address",
          "name": "newOwner",
          "type": "address"
        }
      ],
      "name": "OwnershipTransferred",
      "type": "event"
    },
    {
      "anonymous": false,
      "inputs": [
        {
          "indexed": false,
          "internalType": "uint256",
          "name": "newValue",
          "type": "uint256"
        }
      ],
      "name": "ValueChanged",
      "type": "event"
    },
    {
      "constant": false,
      "inputs": [],
      "name": "increment",
      "outputs": [],
      "payable": false,
      "stateMutability": "nonpayable",
      "type": "function"
    },
    {
      "constant": false,
      "inputs": [
        {
          "internalType": "address",
          "name": "sender",
          "type": "address"
        }
      ],
      "name": "initialize",
      "outputs": [],
      "payable": false,
      "stateMutability": "nonpayable",
      "type": "function"
    },
    {
      "constant": false,
      "inputs": [
        {
          "components": [
            {
              "internalType": "string",
              "name": "name",
              "type": "string"
            }
          ],
          "internalType": "struct Box.BoxInfo",
          "name": "info",
          "type": "tuple"
        }
      ],
      "name": "initializeBox",
      "outputs": [],
      "payable": false,
      "stateMutability": "nonpayable",
      "type": "function"
    },
    {
      "constant": true,
      "inputs": [],
      "name": "isOwner",
      "outputs": [
        {
          "internalType": "bool",
          "name": "",
          "type": "bool"
        }
      ],
      "payable": false,
      "stateMutability": "view",
      "type": "function"
    },
    {
      "constant": true,
      "inputs": [],
      "name": "name",
      "outputs": [
        {
          "internalType": "string",
          "name": "",
          "type": "string"
        }
      ],
      "payable": false,
      "stateMutability": "view",
      "type": "function"
    },
    {
      "constant": true,
      "inputs": [],
      "name": "owner",
      "outputs": [
        {
          "internalType": "address",
          "name": "",
          "type": "address"
        }
      ],
      "payable": false,
      "stateMutability": "view",
      "type": "function"
    },
    {
      "constant": false,
      "inputs": [],
      "name": "renounceOwnership",
      "outputs": [],
      "payable": false,
      "stateMutability": "nonpayable",
      "type": "function"
    },
    {
      "constant": true,
      "inputs": [],
      "name": "retrieve",
      "outputs": [
        {
          "internalType": "uint256",
          "name": "",
          "type": "uint256"
        }
      ],
      "payable": false,
      "stateMutability": "view",
      "type": "function"
    },
    {
      "constant": false,
      "inputs": [
        {
          "internalType": "uint256",
          "name": "newValue",
          "type": "uint256"
        }
      ],
      "name": "store",
      "outputs": [],
      "payable": false,
      "stateMutability": "nonpayable",
      "type": "function"
    },
    {
      "constant": false,
      "inputs": [
        {
          "internalType": "address",
          "name": "newOwner",
          "type": "address"
        }
      ],
      "name": "transferOwnership",
      "outputs": [],
      "payable": false,
      "stateMutability": "nonpayable",
      "type": "function"
    }
  ],
  "bytecode": "0x60806040526109ff806100136000396000f3fe608060405234801561001057600080fd5b506004361061009e5760003560e01c80638da5cb5b116100665780638da5cb5b146101065780638f32d59b1461011b578063c4d66de814610130578063d09de08a14610143578063f2fde38b1461014b5761009e565b806306fdde03146100a35780632e64cec1146100c15780632e7ffbe0146100d65780636057361d146100eb578063715018a6146100fe575b600080fd5b6100ab61015e565b6040516100b8919061088b565b60405180910390f35b6100c96101f5565b6040516100b891906108d3565b6100e96100e43660046106f2565b6101fb565b005b6100e96100f9366004610727565b6102b1565b6100e9610315565b61010e610383565b6040516100b8919061086f565b610123610392565b6040516100b8919061087d565b6100e961013e3660046106cc565b6103b8565b6100e961048a565b6100e96101593660046106cc565b6104be565b60678054604080516020601f60026000196101006001881615020190951694909404938401819004810282018101909252828152606093909290918301828280156101ea5780601f106101bf576101008083540402835291602001916101ea565b820191906000526020600020905b8154815290600101906020018083116101cd57829003601f168201915b505050505090505b90565b60665490565b600054610100900460ff168061021457506102146104ee565b80610222575060005460ff16155b6102475760405162461bcd60e51b815260040161023e906108c3565b60405180910390fd5b600054610100900460ff16158015610272576000805460ff1961ff0019909116610100171660011790555b81518051839160679161028c91839160209091019061057a565b5090505061029b61013e6104f4565b80156102ad576000805461ff00191690555b5050565b6102b9610392565b6102d55760405162461bcd60e51b815260040161023e906108b3565b60668190556040517f93fe6d397c74fdf1402a8b72e47b68512f0510d7b98a4bc4cbdf6ac7108b3c599061030a9083906108d3565b60405180910390a150565b61031d610392565b6103395760405162461bcd60e51b815260040161023e906108b3565b6033546040516000916001600160a01b0316907f8be0079c531659141344cd1fd0a4f28419497f9722a3daafe3b4186f6b6457e0908390a3603380546001600160a01b0319169055565b6033546001600160a01b031690565b6033546000906001600160a01b03166103a96104f4565b6001600160a01b031614905090565b600054610100900460ff16806103d157506103d16104ee565b806103df575060005460ff16155b6103fb5760405162461bcd60e51b815260040161023e906108c3565b600054610100900460ff16158015610426576000805460ff1961ff0019909116610100171660011790555b603380546001600160a01b0319166001600160a01b0384811691909117918290556040519116906000907f8be0079c531659141344cd1fd0a4f28419497f9722a3daafe3b4186f6b6457e0908290a380156102ad576000805461ff00191690555050565b610492610392565b6104ae5760405162461bcd60e51b815260040161023e906108b3565b6104bc6066546001016102b1565b565b6104c6610392565b6104e25760405162461bcd60e51b815260040161023e906108b3565b6104eb816104f8565b50565b303b1590565b3390565b6001600160a01b03811661051e5760405162461bcd60e51b815260040161023e906108a3565b6033546040516001600160a01b038084169216907f8be0079c531659141344cd1fd0a4f28419497f9722a3daafe3b4186f6b6457e090600090a3603380546001600160a01b0319166001600160a01b0392909216919091179055565b828054600181600116156101000203166002900490600052602060002090601f016020900481019282601f106105bb57805160ff19168380011785556105e8565b828001600101855582156105e8579182015b828111156105e85782518255916020019190600101906105cd565b506105f49291506105f8565b5090565b6101f291905b808211156105f457600081556001016105fe565b803561061d8161099f565b92915050565b600082601f83011261063457600080fd5b813561064761064282610908565b6108e1565b9150808252602083016020830185838301111561066357600080fd5b61066e838284610959565b50505092915050565b60006020828403121561068957600080fd5b61069360206108e1565b9050813567ffffffffffffffff8111156106ac57600080fd5b6106b884828501610623565b82525092915050565b803561061d816109b3565b6000602082840312156106de57600080fd5b60006106ea8484610612565b949350505050565b60006020828403121561070457600080fd5b813567ffffffffffffffff81111561071b57600080fd5b6106ea84828501610677565b60006020828403121561073957600080fd5b60006106ea84846106c1565b61074e8161093d565b82525050565b61074e81610948565b600061076882610930565b6107728185610934565b9350610782818560208601610965565b61078b81610995565b9093019392505050565b60006107a2602683610934565b7f4f776e61626c653a206e6577206f776e657220697320746865207a65726f206181526564647265737360d01b602082015260400192915050565b60006107ea602083610934565b7f4f776e61626c653a2063616c6c6572206973206e6f7420746865206f776e6572815260200192915050565b6000610823602e83610934565b7f436f6e747261637420696e7374616e63652068617320616c726561647920626581526d195b881a5b9a5d1a585b1a5e995960921b602082015260400192915050565b61074e816101f2565b6020810161061d8284610745565b6020810161061d8284610754565b6020808252810161089c818461075d565b9392505050565b6020808252810161061d81610795565b6020808252810161061d816107dd565b6020808252810161061d81610816565b6020810161061d8284610866565b60405181810167ffffffffffffffff8111828210171561090057600080fd5b604052919050565b600067ffffffffffffffff82111561091f57600080fd5b506020601f91909101601f19160190565b5190565b90815260200190565b600061061d8261094d565b151590565b6001600160a01b031690565b82818337506000910152565b60005b83811015610980578181015183820152602001610968565b8381111561098f576000848401525b50505050565b601f01601f191690565b6109a88161093d565b81146104eb57600080fd5b6109a8816101f256fea365627a7a72315820efe48b0f2564ea311cfdf6e1057e3dad3720b529c08ddd446b23ea79e4a516916c6578706572696d656e74616cf564736f6c634300050c0040",
  "compiler": {
    "name": "solc",
    "version": "0.5.12+commit.7709ece9.Emscripten.clang",
    "optimizer": {
      "enabled": true,
      "runs": 200
    },
    "evmVersion": "petersburg"
  }
}